:100000000C942A000C943F000C943F000C943F0089
:100010000C943F000C943F000C943F000C943F0064
:100020000C943F000C943F000C943F000C943F0054
:100030000C943F000C943F000C943F000C943F0044
:100040000C943F000C943F000C943F000C943F0034
:100050000C943F0011241FBECFE5D8E0DEBFCDBF1A
:1000600010E0A0E6B0E0EAE2F2E002C005900D92F6
:10007000A238B107D9F70E94A1000C9413010C9487
:10008000000088E18AB986E880BD83E389B910BCA5
:1000900008955D9BFECF8CB908955F9BFECF8CB118
:1000A0000895FC0104C05D9BFECF8CB93196808120
:1000B0008823C9F708950F931F93DF93CF93CDB78C
:1000C000DEB764970FB6F894DEBF0FBECDBF8E01CA
:1000D0000F5F1F4FB8014AE050E00E94E200C801E4
:1000E0000E94510064960FB6F894DEBF0FBECDBFDC
:1000F000CF91DF911F910F9108951FBC84E08EBDB9
:100100001DBC1CBC0895939A80EA9FE00197F1F70B
:100110009398829BFECF1DBC1CBC8299FECF8CB5F0
:100120009DB525E0880F991F2A95E1F76AE370E0F5
:100130000E94CE00CB0108950E947D008B9A8A9880
:1001400008950F931F93CF93DF930E9441000E9465
:100150009C0080E690E00E94510080E197E228EC4C
:1001600030E0F9013197F1F70197D9F7C8ECD0E009
:100170000E9483008C018DE690E00E945100C8012E
:100180000E945B008BE790E00E94510080E29EE4B9
:10019000FE013197F1F70197D9F7EACFAA1BBB1BF4
:1001A00051E107C0AA1FBB1FA617B70710F0A61B77
:1001B000B70B881F991F5A95A9F780959095BC0198
:1001C000CD010895FB019F01E8944230C4F045320F
:1001D000B4F44A3029F497FB1EF4909581959F4F13
:1001E000642F77270E94CE00805D8A330CF0895DF2
:1001F0008193CB010097A1F716F45DE25193108231
:10020000C9010C940301DC01FC01672F7191772374
:10021000E1F7329704C07C916D9370836291AE17C1
:0A022000BF07C8F30895F894FFCF5C
:10022A00496E697420446F6E65200D0A000D0A201C
:10023A0044697374616E6365203D00636D200D0A25
:02024A000000B2
:00000001FF
